:1000000071C000008EC000008CC000008AC00000DB
:1000100088C0000086C0000084C0000082C00000CC
:1000200080C000007EC000007CC000007AC00000DC
:1000300078C0000076C0000074C0000072C00000EC
:1000400070C000006EC000006CC000006AC00000FC
:1000500068C0000066C0000064C0000062C000000C
:1000600060C000005EC000005CC000005AC000001C
:1000700058C0000056C0000054C0000052C000002C
:1000800050C000004EC000004CC000004AC000003C
:1000900048C0000046C0000044C0000042C000004C
:1000A00040C000003EC000003CC000003AC000005C
:1000B00038C0000036C0000034C0000032C000006C
:1000C00030C000002EC000002CC000002AC000007C
:1000D00028C0000026C0000024C0000022C000008C
:1000E00020C0000011241FBECFEFD1E2DEBFCDBF84
:1000F00000E00CBF13E0A0E0B2E0E2E7F5E000E0D2
:100100000BBF02C007900D92AA37B107D9F723E0C1
:10011000AAE7B3E001C01D92AA37B207E1F78AD07F
:1001200026C26ECFCF93DF931F92CDB7DEB7198271
:1001300089818F5F898389818F5F89830F90DF91A8
:10014000CF9108950F931F93CF93DF93082F10E063
:10015000101611063CF4C0E0D0E0E4DF2196C01791
:10016000D107DCF3DF91CF911F910F9108950F9389
:100170001F93CF93DF93082F10E01016110674F42D
:10018000C0E0D0E08AEFDEDF8AEFDCDF8AEFDADF83
:100190008AEFD8DF2196C017D107A4F3DF91CF9162
:1001A0001F910F9108950F931F93CF93DF93082F03
:1001B00010E01016110674F4C0E0D0E08AEFD7DF2B
:1001C0008AEFD5DF8AEFD3DF8AEFD1DF2196C01720
:1001D000D107A4F3DF91CF911F910F91089543E0D0
:1001E00064E072E080E192E00AD041E06EE172E00A
:1001F0008DE292E004D0F9CFD0D071C00895FF9283
:100200000F931F93CF93DF938C01EB01F42E9AD0C1
:1002100060E080E088D0C801B0D060E081E083D0A9
:10022000CE01ABD08F2DBFDFDF91CF911F910F910A
:10023000FF900895E1DF83E090E031D143E06CE38B
:1002400072E08AE492E0DBDFC5E6D0E025D1BE01B2
:10025000B3D0C5DFFBCF0F931F93CF93DF93082F4E
:100260002E9818E0C2E0D1E0002324F48881806455
:10027000888303C088818F7B88838881806288839C
:1002800051DF88818F7D8883000F115069F72E9A86
:10029000DF91CF911F910F9108951F93CF93DF931B
:1002A000811104C02C98862FD6DF15C02C9A60527D
:1002B000862F90E0EC01CC0FDD1FCC0FDD1FC80FA7
:1002C000D91FCD5ADD4F10E08991C5DF1F5F153072
:1002D000D9F780E0C0DFDF91CF911F910895E1E071
:1002E000F1E0808180628083808180648083249AB1
:1002F000259A269A84E13BDF2D9A8AE038DF2E9AF0
:1003000061E280E0CADF63E180E0C7DF61EC80E0AA
:10031000C4DF64E080E0C1DF60E280E0BEDF6CE06B
:1003200080E0BBCF0895CF93C62F682F606480E034
:10033000B4DF6C2F660F6C0F660F606880E0ADDF76
:10034000CF9108951F93CF93DF93D0E010E00CC0BE
:100350006C2F8D2FE8DF60E281E09FDFCF5FCE3032
:10036000B9F7DF5FD63011F0C12FF2CF60E080E047
:10037000DADFDF91CF911F910895CF93DF93FC01D6
:100380006081662339F0EC01219681E086DF699176
:100390006111FBCFDF91CF9108959D9A6B9AE1E0B7
:1003A000F1E080818860808380818061808385988E
:1003B00084986C986D98089597FB072E16F4009416
:1003C00006D077FD08D00BD007FC05D03EF4909501
:1003D00081959F4F0895709561957F4F0895AA1B51
:1003E000BB1B51E107C0AA1FBB1FA617B70710F020
:1003F000A61BB70B881F991F5A95A9F78095909552
:10040000BC01CD0108958F929F92AF92BF92CF927F
:10041000DF92EF92FF92CF93DF93EC0168817981B5
:100420008A819B81611571058105910521F464E242
:1004300079ED8BE597E02DE133EF41E050E03AD0E4
:1004400049015A019B01AC01A7EAB1E44FD06B010D
:100450007C01ACEEB4EFA501940154D0C60ED71EBA
:10046000E81EF91EF7FE06C081E0C81AD108E108AF
:1004700080E8F80AC882D982EA82FB82C6019F77A7
:10048000DF91CF91FF90EF90DF90CF90BF90AF9032
:100490009F908F900895B7CF80E092E0B4CFA0E016
:1004A000B0E08093000290930102A0930202B09307
:1004B00003020895052E97FB16F400940FD057FD04
:1004C00005D024D007FC02D046F408C050954095D2
:1004D000309521953F4F4F4F5F4F089590958095F0
:1004E000709561957F4F8F4F9F4F089531D0A59F95
:1004F000900DB49F900DA49F800D911D112408951F
:10050000B7FFF4CFF3DF821B930B0895A1E21A2EFD
:10051000AA1BBB1BFD010DC0AA1FBB1FEE1FFF1FA7
:10052000A217B307E407F50720F0A21BB30BE40BF7
:10053000F50B661F771F881F991F1A9469F760953E
:100540007095809590959B01AC01BD01CF010895F8
:10055000A29FB001B39FC001A39F700D811D112404
:10056000911DB29F700D811D1124911D0895F89465
:02057000FFCFBB
:1005720001000000544845204E554D4245523F006F
:1005820043414E20594F552047554553530042454C
:10059200545745454E20312D3130302100454E54BF
:1005A20045522041204E554D424552004C4554275C
:1005B2005320504C41592E2E2E0057454C434F4D3F
:1005C200452100000000000000005F00000007005D
:1005D2000700147F147F14242A7F2A12231308642D
:1005E2006236495522500005030000001C224100DA
:1005F2000041221C0014083E081408083E080800A6
:100602005030000008080808080060600000201050
:100612000804023E5149453E00427F40004261517A
:1006220049462141454B311814127F102745454553
:10063200393C4A494930017109050336494949366D
:10064200064949291E0036360000005636000008C9
:10065200142241001414141414004122140802013B
:10066200510906324979413E7E1111117E7F494975
:1006720049363E414141227F4141221C7F4949493D
:10068200417F090909013E4149497A7F0808087FEB
:1006920000417F41002040413F017F081422417FF9
:1006A200404040407F020C027F7F0408107F3E41A1
:1006B20041413E7F090909063E4151215E7F0919E8
:1006C2002946464949493101017F01013F404040E5
:1006D2003F1F2040201F3F4038403F6314081463EF
:0A06E20007087008076151494543FD
:00000001FF
