:1000000071C000008EC000008CC000008AC00000DB
:1000100088C0000086C0000084C0000082C00000CC
:1000200080C000007EC000007CC000007AC00000DC
:1000300078C0000076C0000074C0000072C00000EC
:1000400070C000006EC000006CC000006AC00000FC
:1000500068C0000066C0000064C0000062C000000C
:1000600060C000005EC000005CC000005AC000001C
:1000700058C0000056C0000054C0000052C000002C
:1000800050C000004EC000004CC000004AC000003C
:1000900048C0000046C0000044C0000042C000004C
:1000A00040C000003EC000003CC000003AC000005C
:1000B00038C0000036C0000034C0000032C000006C
:1000C00030C000002EC000002CC000002AC000007C
:1000D00028C0000026C0000024C0000022C000008C
:1000E00020C0000011241FBECFEFD1E2DEBFCDBF84
:1000F00000E00CBF13E0A0E0B2E0E4ECFDE000E0C3
:100100000BBF02C007900D92AA3DB107D9F723E0BB
:10011000AAEDB3E001C01D92AA3DB207E1F77FD17D
:100120004FC66ECFCF93DF931F92CDB7DEB7198244
:1001300089818F5F898389818F5F89830F90DF91A8
:10014000CF9108950F931F93CF93DF93082F10E063
:10015000101611063CF4C0E0D0E0E4DF2196C01791
:10016000D107DCF3DF91CF911F910F9108950F9389
:100170001F93CF93DF93082F10E01016110674F42D
:10018000C0E0D0E08AEFDEDF8AEFDCDF8AEFDADF83
:100190008AEFD8DF2196C017D107A4F3DF91CF9162
:1001A0001F910F9108950F931F93CF93DF93082F03
:1001B00010E01016110674F4C0E0D0E08AEFD7DF2B
:1001C0008AEFD5DF8AEFD3DF8AEFD1DF2196C01720
:1001D000D107A4F3DF91CF911F910F910895EF9272
:1001E000FF920F931F93CF93DF93CDB7DEB7619745
:1001F0000FB6F894DEBF0FBECDBF7C0143E064E0D4
:1002000072E080E192E0F0D000E010E0BE016F5FAC
:100210007F4F8EE192E066D0882371F029813A8188
:10022000A901415051094436510530F40F5F1F4F69
:10023000E216F30649F507C041E06CE272E08BE399
:1002400092E0D2D0E3CF41E06AE372E08AE492E048
:10025000CBD01F930F938AE592E09F938F93CE01AB
:1002600001967C01FF928F938CD243E06AE372E0A7
:10027000C701BAD00F900F900F900F900F900F9072
:1002800008301105C8F411C02E153F0538F441E0BF
:100290006AE372E086E692E0A7D0B8CF41E06AE375
:1002A00072E08FE692E0A0D0B1CF43E06AE372E063
:1002B00089E792E099D006C043E063E872E080E904
:1002C00092E092D061960FB6F894DEBF0FBECDBF1C
:1002D000DF91CF911F910F91FF90EF90089552D130
:1002E000F3C00895CF92DF92EF92FF920F931F9386
:1002F000CF93DF9300D01F92CDB7DEB77C016B01A7
:1003000016D160E080E004D1C7012CD160E081E02B
:10031000FFD010E046D1082F8823E1F3833221F18A
:100320008A3269F41123E1F01150612F81E0F0D09D
:1003300060E281E0A7D0612F81E0EAD011C01330E4
:1003400078F48FEB800F843058F0602F81E09AD0E2
:10035000E1E0F0E0EC0FFD1FE10FF11D00831F5FF6
:1003600020D18111FDCFD6CFFE01E10FF11D118209
:10037000112361F18FEF810FFE01E80FF11D418123
:10038000405350E08823F9F02AE030E08150E1E06A
:10039000F0E0EC0FFD1FE80FF11D90819053929F4C
:1003A000F001939FF00D11244E0F5F1FF901EE0F26
:1003B000FF1F220F331F220F331F220F331F2E0F59
:1003C0003F1F8111E3CFF60151834083812F0F90AE
:1003D0000F900F900F90DF91CF911F910F91FF9091
:1003E000EF90DF90CF900895FF920F931F93CF93DC
:1003F000DF938C01EB01F42E9AD060E080E088D08E
:10040000C801B0D060E081E083D0CE01ABD08F2DA9
:10041000CADEDF91CF911F910F91FF9008955FDFAA
:1004200082E090E0A3D143E06CE972E08AEA92E0D6
:10043000DBDFC5E6D0E097D1BE0125D1D0DEFBCF12
:100440000F931F93CF93DF93082F2E9818E0C2E0ED
:10045000D1E0002324F488818064888303C08881EC
:100460008F7B88838881806288835CDE88818F7D32
:100470008883000F115069F72E9ADF91CF911F9159
:100480000F9108951F93CF93DF93811104C02C988F
:10049000862FD6DF15C02C9A6052862F90E0EC0193
:1004A000CC0FDD1FCC0FDD1FC80FD91FCD54DD4F82
:1004B00010E08991C5DF1F5F1530D9F780E0C0DFFC
:1004C000DF91CF911F910895E1E0F1E0808180629A
:1004D0008083808180648083249A259A269A84E18F
:1004E00046DE2D9A8AE043DE2E9A61E280E0CADF82
:1004F00063E180E0C7DF61EC80E0C4DF64E080E0BE
:10050000C1DF60E280E0BEDF6CE080E0BBCF089539
:10051000CF93C62F682F606480E0B4DF6C2F660F26
:100520006C0F660F606880E0ADDFCF9108951F9378
:10053000CF93DF93D0E010E00CC06C2F8D2FE8DF5D
:1005400060E281E09FDFCF5FCE30B9F7DF5FD6306A
:1005500011F0C12FF2CF60E080E0DADFDF91CF91C0
:100560001F910895CF93DF93FC016081662339F0DA
:10057000EC01219681E086DF69916111FBCFDF916B
:10058000CF9108959D9A6B9AE1E0F1E080818860B7
:100590008083808180618083859884986C986D9831
:1005A0000895A59A7398E2E0F1E08081877F8083C7
:1005B00080818F7E808381E0DADD7D9944C07C99E3
:1005C00044C0649944C0659944C0A598739AE2E018
:1005D000F1E08081877F808380818F7E808381E0CE
:1005E000C6DD7D9938C07C9938C0649938C065995A
:1005F00038C0A5987398E2E0F1E08081886080833C
:1006000080818F7E808381E0B2DD7D992CC07C99D2
:100610002CC064992CC065992CC0A5987398E2E011
:10062000F1E08081877F808380818061808381E0A9
:100630009EDD7D9920C07C9920C0649920C0659B77
:1006400020C084E4089581E3089584E3089587E356
:1006500008958AE2089582E3089585E3089588E382
:10066000089580E3089583E3089586E3089589E378
:10067000089583E2089581E4089582E4089583E46F
:10068000089580E0089597FB072E16F4009406D095
:1006900077FD08D00BD007FC05D03EF490958195EE
:1006A0009F4F0895709561957F4F0895AA1BBB1BBE
:1006B00051E107C0AA1FBB1FA617B70710F0A61B62
:1006C000B70B881F991F5A95A9F780959095BC0183
:1006D000CD0108958F929F92AF92BF92CF92DF92F9
:1006E000EF92FF92CF93DF93EC01688179818A8149
:1006F0009B81611571058105910521F464E279ED15
:100700008BE597E02DE133EF41E050E0FCD2490169
:100710005A019B01AC01A7EAB1E411D36B017C0142
:10072000ACEEB4EFA501940116D3C60ED71EE81E99
:10073000F91EF7FE06C081E0C81AD108E10880E87A
:10074000F80AC882D982EA82FB82C6019F77DF91CC
:10075000CF91FF90EF90DF90CF90BF90AF909F90A0
:100760008F900895B7CF80E092E0B4CFA0E0B0E0E2
:100770008093000290930102A0930202B0930302BF
:1007800008950F931F93CF93DF93CDB7DEB72E97C6
:100790000FB6F894DEBF0FBECDBF0E891F8986E06D
:1007A0008C831A8309838FEF9FE79E838D83AE012D
:1007B000465E5F4F688D798DCE01019610D0EF8136
:1007C000F885E00FF11F10822E960FB6F894DEBF69
:1007D0000FBECDBFDF91CF911F910F9108952F9242
:1007E0003F924F925F926F927F928F929F92AF92C1
:1007F000BF92CF92DF92EF92FF920F931F93CF930E
:10080000DF93CDB7DEB72C970FB6F894DEBF0FBEDF
:10081000CDBF7C016B018A01FC01178216828381A6
:1008200081FFB0C1CE0101964C01F7019381F60121
:1008300093FD859193FF81916F01882309F49EC1F7
:10084000853239F493FD859193FF81916F01853253
:1008500021F4B70190E0C7D1E8CF512C312C20E032
:100860002032A0F48B3269F030F4803259F08332B8
:1008700069F420612CC08D3239F0803339F4216065
:1008800026C02260246023C0286021C027FD27C025
:1008900030ED380F3A3078F426FF06C0FAE05F9E5C
:1008A000300D1124532E13C08AE0389E300D1124D0
:1008B000332E20620CC08E3221F426FD5FC12064ED
:1008C00006C08C3611F4206802C0883641F4F60167
:1008D00093FD859193FF81916F018111C1CF982F75
:1008E0009F7D9554933028F40C5F1F4FFFE3F983ED
:1008F0000DC0833631F0833771F0833509F057C06E
:1009000021C0F801808189830E5F1F4F44244394E6
:10091000512C540114C03801F2E06F0E711CF80123
:10092000A080B18026FF03C0652D70E002C06FEF8C
:100930007FEFC5012C874CD12C0183012C852F77AB
:10094000222E16C03801F2E06F0E711CF801A08053
:10095000B18026FF03C0652D70E002C06FEF7FEF0E
:10096000C5012C872AD12C012C852068222E8301D9
:1009700023FC19C0832D90E048165906A0F4B70156
:1009800080E290E030D13A94F5CFF50127FC8591D3
:1009900027FE81915F01B70190E025D131103A9493
:1009A000F1E04F1A51084114510479F7DEC0843642
:1009B00011F0893631F5F80127FF07C06081718198
:1009C000828193810C5F1F4F08C0608171818827ED
:1009D00077FD8095982F0E5F1F4F2F76B22E97FFD1
:1009E00009C090958095709561957F4F8F4F9F4F6F
:1009F0002068B22E2AE030E0A40127D1A82EA81842
:100A000043C0853729F42F7EB22E2AE030E025C07E
:100A1000F22FF97FBF2E8F36C1F018F4883579F0A8
:100A2000ADC0803719F0883721F0A8C02F2F206182
:100A3000B22EB4FE0DC08B2D8460B82E09C024FFE9
:100A40000AC09F2F9660B92E06C028E030E005C08E
:100A500020E130E002C020E132E0F801B7FE07C03B
:100A600060817181828193810C5F1F4F06C060811C
:100A7000718180E090E00E5F1F4FA401E6D0A82EA8
:100A8000A818FB2DFF77BF2EB6FE0BC02B2D2E7F97
:100A9000A51450F4B4FE0AC0B2FC08C02B2D2E7E63
:100AA00005C07A2C2B2D03C07A2C01C0752C24FF95
:100AB0000DC0FE01EA0DF11D8081803311F4297E05
:100AC00009C022FF06C07394739404C0822F8678F5
:100AD00009F0739423FD12C020FF06C05A2C731432
:100AE00018F4530C5718732C731460F4B70180E298
:100AF00090E02C8778D073942C85F6CF731410F483
:100B0000371801C0312C24FF11C0B70180E390E0F9
:100B10002C8769D02C8522FF16C021FF03C088E5F1
:100B200090E002C088E790E0B7010CC0822F867881
:100B300051F021FD02C080E201C08BE227FD8DE271
:100B4000B70190E050D0A51430F4B70180E390E0F5
:100B50004AD05A94F8CFAA94F401EA0DF11D80818D
:100B6000B70190E040D0A110F6CF332009F45DCE5C
:100B7000B70180E290E037D03A94F7CFF701868151
:100B8000978102C08FEF9FEF2C960FB6F894DEBFCF
:100B90000FBECDBFDF91CF911F910F91FF90EF90CE
:100BA000DF90CF90BF90AF909F908F907F906F908D
:100BB0005F904F903F902F900895FC0105906150F9
:100BC00070400110D8F7809590958E0F9F1F089563
:100BD000FC016150704001900110D8F7809590950C
:100BE0008E0F9F1F08950F931F93CF93DF93182F9E
:100BF000092FEB018B8181FD03C08FEF9FEF20C098
:100C000082FF10C04E815F812C813D8142175307C6
:100C10007CF4E881F9819F012F5F3F4F398328835E
:100C2000108306C0E885F985812F1995892B29F74E
:100C30002E813F812F5F3F4F3F832E83812F902F47
:100C4000DF91CF911F910F910895FA01AA272830C3
:100C500051F1203181F1E8946F936E7F6E5F7F4F89
:100C60008F4F9F4FAF4FB1E03ED0B4E03CD0670F05
:100C7000781F891F9A1FA11D680F791F8A1F911D58
:100C8000A11D6A0F711D811D911DA11D20D009F4A8
:100C900068943F912AE0269F11243019305D3193EA
:100CA000DEF6CF010895462F4770405D4193B3E0D3
:100CB0000FD0C9F7F6CF462F4F70405D4A3318F07A
:100CC000495D31FD4052419302D0A9F7EACFB4E02B
:100CD000A6959795879577956795BA95C9F70097E3
:100CE0006105710508959B01AC010A2E0694579584
:100CF000479537952795BA95C9F7620F731F841FDB
:100D0000951FA01D0895052E97FB16F400940FD093
:100D100057FD05D024D007FC02D046F408C05095FA
:100D20004095309521953F4F4F4F5F4F08959095D7
:100D30008095709561957F4F8F4F9F4F089531D06B
:100D4000A59F900DB49F900DA49F800D911D11241F
:100D50000895B7FFF4CFF3DF821B930B0895A1E250
:100D60001A2EAA1BBB1BFD010DC0AA1FBB1FEE1F25
:100D7000FF1FA217B307E407F50720F0A21BB30B70
:100D8000E40BF50B661F771F881F991F1A9469F7EC
:100D900060957095809590959B01AC01BD01CF0148
:100DA0000895A29FB001B39FC001A39F700D811D44
:100DB0001124911DB29F700D811D1124911D089564
:040DC000F894FFCFD5
:100DC40001000000544845204E554D4245523F0015
:100DD40043414E20594F5520475545535300454EE6
:100DE400544552204E554D4245523A0042455457BF
:100DF40045454E20312D3130302100454E54455269
:100E04002041204E554D42455200434F52524543D6
:100E140054204E554D4245522100475545535345A4
:100E2400533A20257500544F4F204C4F57210054FE
:100E34004F4F20484947482100474F4F44204A4FCD
:100E44004221004E4558542054494D452E2E2E0023
:100E5400424554544552204C55434B004C4554276D
:100E64005320504C41592E2E2E0057454C434F4D84
:100E7400452100000000000000005F0000000700A2
:100E84000700147F147F14242A7F2A122313086472
:100E94006236495522500005030000001C2241001F
:100EA4000041221C0014083E081408083E080800EB
:100EB4005030000008080808080060600000201096
:100EC4000804023E5149453E00427F4000426151C0
:100ED40049462141454B311814127F102745454599
:100EE400393C4A49493001710905033649494936B3
:100EF400064949291E00363600000056360000080F
:100F04001422410014141414140041221408020180
:100F1400510906324979413E7E1111117E7F4949BA
:100F240049363E414141227F4141221C7F49494982
:100F3400417F090909013E4149497A7F0808087F30
:100F440000417F41002040413F017F081422417F3E
:100F5400404040407F020C027F7F0408107F3E41E6
:100F640041413E7F090909063E4151215E7F09192D
:100F74002946464949493101017F01013F4040402A
:100F84003F1F2040201F3F4038403F631408146334
:0A0F94000708700807615149454342
:00000001FF
