S00C00004C6162332E73726563D6
S113000071C000008EC000008CC000008AC00000D7
S113001088C0000086C0000084C0000082C00000C8
S113002080C000007EC000007CC000007AC00000D8
S113003078C0000076C0000074C0000072C00000E8
S113004070C000006EC000006CC000006AC00000F8
S113005068C0000066C0000064C0000062C0000008
S113006060C000005EC000005CC000005AC0000018
S113007058C00000A2C2000054C0000052C00000DA
S113008050C000004EC000004CC000004AC0000038
S113009048C0000046C0000044C0000042C0000048
S11300A040C000003EC000003CC000003AC0000058
S11300B038C0000036C0000034C0000032C0000068
S11300C030C000002EC000002CC000002AC0000078
S11300D028C0000026C0000024C0000022C0000088
S11300E020C0000011241FBECFEFD1E2DEBFCDBF80
S11300F000E00CBF13E0A0E0B2E0E2E1FCE000E0CD
S11301000BBF02C007900D92A037B107D9F723E0C7
S1130110A0E7B3E001C01D92A137B207E1F77FD099
S113012076C56ECFCF93DF931F92CDB7DEB719821A
S113013089818F5F898389818F5F89830F90DF91A4
S1130140CF9108950F931F93CF93DF93082F10E05F
S1130150101611063CF4C0E0D0E0E4DF2196C0178D
S1130160D107DCF3DF91CF911F910F9108950F9385
S11301701F93CF93DF93082F10E01016110674F429
S1130180C0E0D0E08AEFDEDF8AEFDCDF8AEFDADF7F
S11301908AEFD8DF2196C017D107A4F3DF91CF915E
S11301A01F910F9108950F931F93CF93DF93082FFF
S11301B010E01016110674F4C0E0D0E08AEFD7DF27
S11301C08AEFD5DF8AEFD3DF8AEFD1DF2196C0171C
S11301D0D107A4F3DF91CF911F910F9108956CD1B2
S11301E00DC10895FF920F931F93CF93DF938C015A
S11301F0EB01F42E36D160E080E024D1C8014CD16B
S113020060E081E01FD1CE0147D1FF2011F08F2D96
S1130210CADFDF91CF911F910F91FF900895CF9383
S1130220DF93CDB7DEB72F970FB6F894DEBF0FBEBE
S1130230CDBFD5DFD2D110E00F2EFBE1CF2EF2E0FF
S1130240DF2EF02DCE0101964C010F2EFAE3EF2E96
S1130250F2E0FF2EF02D0F2EF0E0AF2EF2E0BF2ED5
S1130260F02D6894662462F8552453940F2EF3E01D
S11302704F2EF02D6894772471F82DD1082FD3D107
S1130280123071F128F4112351F01130D9F0F5CF67
S1130290133009F443C0143009F44EC0EECF0033D8
S11302A059F0013321F4811107C0142D05C0033323
S11302B019F4152D811110E040E0B70186E092E0B9
S11302C091DFDBCF003319F0811103C003C010E0CC
S11302D001C0172D40E0B70180E192E083DFCDCF6C
S11302E0003309F410E0803518F09A2D2B2D02C04C
S11302F09E2D2F2D2F939F931F928F93DF92CF923A
S11303009F928F92C2D140E0B40183E292E06ADF0F
S11303100FB6F894DEBF0FBECDBFAFCF003319F0D8
S1130320811103C003C010E001C0162D40E0B701E5
S11303308FE292E057DFA1CF003309F410E080355B
S113034018F09A2D2B2D02C09E2D2F2D2F939F93A5
S11303501F928F93DF92CF929F928F9296D140E01B
S1130360B4018BE392E03EDF0FB6F894DEBF0FBE1C
S1130370CDBF83CF0F931F93CF93DF93082F2E9876
S113038018E0C2E0D1E0002324F4888180648883EB
S113039003C088818F7B8883888180628883C2DEE2
S11303A088818F7D8883000F115069F72E9ADF9121
S11303B0CF911F910F9108951F93CF93DF938111D4
S11303C004C02C98862FD6DF15C02C9A6052862F35
S11303D090E0EC01CC0FDD1FCC0FDD1FC80FD91F3F
S11303E0C85BDD4F10E08991C5DF1F5F1530D9F779
S11303F080E0C0DFDF91CF911F910895E1E0F1E04B
S1130400808180628083808180648083249A259A9D
S1130410269A84E1ACDE2D9A8AE0A9DE2E9A61E266
S113042080E0CADF63E180E0C7DF61EC80E0C4DF25
S113043064E080E0C1DF60E280E0BEDF6CE080E089
S1130440BBCF0895CF93C62F682F606480E0B4DFDC
S11304506C2F660F6C0F660F606880E0ADDFCF9184
S113046008951F93CF93DF93D0E010E00CC06C2F5E
S11304708D2FE8DF60E281E09FDFCF5FCE30B9F7F8
S1130480DF5FD63011F0C12FF2CF60E080E0DADF19
S1130490DF91CF911F910895CF93DF93FC01608189
S11304A0662339F0EC01219681E086DF69916111C0
S11304B0FBCFDF91CF9108959D9A6B9AE1E0F1E033
S11304C0808188608083808180618083859884981E
S11304D06C986D980895A59A7398E2E0F1E0808194
S11304E0877F808380818F7E808381E040DE7D9959
S11304F044C07C9944C0649944C0659944C0A5989B
S1130500739AE2E0F1E08081877F808380818F7E2F
S1130510808381E02CDE7D9938C07C9938C0649951
S113052038C0659938C0A5987398E2E0F1E08081FD
S11305308860808380818F7E808381E018DE7D994E
S11305402CC07C992CC064992CC065992CC0A598AA
S11305507398E2E0F1E08081877F8083808180610D
S1130560808381E004DE7D9920C07C9920C0649959
S113057020C0659B20C084E4089581E3089584E34A
S1130580089587E308958AE2089582E3089585E350
S1130590089588E3089580E3089583E3089586E346
S11305A0089589E3089583E2089581E4089582E437
S11305B0089583E4089580E008951F920F920FB682
S11305C00F9211248F9380917900809370038F91FF
S11305D00F900FBE0F901F901895ECE7F0E080810C
S11305E080688083808187608083ABE7B0E08C91F2
S11305F088608C93808180628083EAE7F0E0808168
S1130600866080838081806280838081886080832B
S113061080818068808380E880937D0078948081E5
S11306208064808308958091700324E6829FC001D2
S113063011246FEF70E002D0862F089597FB072EE8
S113064016F4009406D077FD08D00BD007FC05D033
S11306503EF4909581959F4F0895709561957F4FD5
S11306600895AA1BBB1B51E107C0AA1FBB1FA617F5
S1130670B70710F0A61BB70B881F991F5A95A9F747
S113068080959095BC01CD0108950F931F93CF934E
S1130690DF93CDB7DEB72E970FB6F894DEBF0FBE4B
S11306A0CDBF0E891F8986E08C831A8309838FEF5F
S11306B09FE79E838D83AE01465E5F4F688D798D83
S11306C0CE01019610D0EF81F885E00FF11F108262
S11306D02E960FB6F894DEBF0FBECDBFDF91CF913B
S11306E01F910F9108952F923F924F925F926F92B4
S11306F07F928F929F92AF92BF92CF92DF92EF92AE
S1130700FF920F931F93CF93DF93CDB7DEB72C9750
S11307100FB6F894DEBF0FBECDBF7C016B018A011A
S1130720FC0117821682838181FFB0C1CE0101963C
S11307304C01F7019381F60193FD859193FF81911B
S11307406F01882309F49EC1853239F493FD8591A4
S113075093FF81916F01853221F4B70190E0C7D1F5
S1130760E8CF512C312C20E02032A0F48B3269F0F8
S113077030F4803259F0833269F420612CC08D3218
S113078039F0803339F4216026C02260246023C00C
S1130790286021C027FD27C030ED380F3A3078F4A7
S11307A026FF06C0FAE05F9E300D1124532E13C0BD
S11307B08AE0389E300D1124332E20620CC08E3214
S11307C021F426FD5FC1206406C08C3611F4206834
S11307D002C0883641F4F60193FD859193FF81911F
S11307E06F018111C1CF982F9F7D9554933028F4C8
S11307F00C5F1F4FFFE3F9830DC0833631F083375D
S113080071F0833509F057C021C0F80180818983D4
S11308100E5F1F4F44244394512C540114C03801DB
S1130820F2E06F0E711CF801A080B18026FF03C0B6
S1130830652D70E002C06FEF7FEFC5012C874CD1AE
S11308402C0183012C852F77222E16C03801F2E06B
S11308506F0E711CF801A080B18026FF03C0652DC6
S113086070E002C06FEF7FEFC5012C872AD12C0105
S11308702C852068222E830123FC19C0832D90E04F
S113088048165906A0F4B70180E290E030D13A94BA
S1130890F5CFF50127FC859127FE81915F01B70112
S11308A090E025D131103A94F1E04F1A51084114E7
S11308B0510479F7DEC0843611F0893631F5F80138
S11308C027FF07C060817181828193810C5F1F4F74
S11308D008C060817181882777FD8095982F0E5F0D
S11308E01F4F2F76B22E97FF09C090958095709573
S11308F061957F4F8F4F9F4F2068B22E2AE030E0E2
S1130900A40127D1A82EA81843C0853729F42F7E27
S1130910B22E2AE030E025C0F22FF97FBF2E8F36A9
S1130920C1F018F4883579F0ADC0803719F08837F4
S113093021F0A8C02F2F2061B22EB4FE0DC08B2D44
S11309408460B82E09C024FF0AC09F2F9660B92E78
S113095006C028E030E005C020E130E002C020E11C
S113096032E0F801B7FE07C0608171818281938112
S11309700C5F1F4F06C06081718180E090E00E5FC4
S11309801F4FA401E6D0A82EA818FB2DFF77BF2E79
S1130990B6FE0BC02B2D2E7FA51450F4B4FE0AC056
S11309A0B2FC08C02B2D2E7E05C07A2C2B2D03C043
S11309B07A2C01C0752C24FF0DC0FE01EA0DF11D37
S11309C08081803311F4297E09C022FF06C073940C
S11309D0739404C0822F867809F0739423FD12C0A7
S11309E020FF06C05A2C731418F4530C5718732C98
S11309F0731460F4B70180E290E02C8778D073948C
S1130A002C85F6CF731410F4371801C0312C24FF51
S1130A1011C0B70180E390E02C8769D02C8522FFB8
S1130A2016C021FF03C088E590E002C088E790E08B
S1130A30B7010CC0822F867851F021FD02C080E2FC
S1130A4001C08BE227FD8DE2B70190E050D0A514E0
S1130A5030F4B70180E390E04AD05A94F8CFAA94D6
S1130A60F401EA0DF11D8081B70190E040D0A1109E
S1130A70F6CF332009F45DCEB70180E290E037D0A1
S1130A803A94F7CFF7018681978102C08FEF9FEFE9
S1130A902C960FB6F894DEBF0FBECDBFDF91CF9179
S1130AA01F910F91FF90EF90DF90CF90BF90AF9088
S1130AB09F908F907F906F905F904F903F902F907A
S1130AC00895FC010590615070400110D8F780959D
S1130AD090958E0F9F1F0895FC0161507040019006
S1130AE00110D8F7809590958E0F9F1F08950F934E
S1130AF01F93CF93DF93182F092FEB018B8181FD77
S1130B0003C08FEF9FEF20C082FF10C04E815F8132
S1130B102C813D81421753077CF4E881F9819F01C0
S1130B202F5F3F4F39832883108306C0E885F985FA
S1130B30812F1995892B29F72E813F812F5F3F4FF4
S1130B403F832E83812F902FDF91CF911F910F919F
S1130B500895FA01AA27283051F1203181F1E8944F
S1130B606F936E7F6E5F7F4F8F4F9F4FAF4FB1E09C
S1130B703ED0B4E03CD0670F781F891F9A1FA11D97
S1130B80680F791F8A1F911DA11D6A0F711D811D98
S1130B90911DA11D20D009F468943F912AE0269F5D
S1130BA011243019305D3193DEF6CF010895462FBC
S1130BB04770405D4193B3E00FD0C9F7F6CF462F9D
S1130BC04F70405D4A3318F0495D31FD4052419306
S1130BD002D0A9F7EACFB4E0A695979587957795C3
S1130BE06795BA95C9F700976105710508959B014A
S1130BF0AC010A2E06945795479537952795BA95D3
S1130C00C9F7620F731F841F951FA01D0895F894E0
S1050C10FFCF10
S1130C125249474854004D4F544F52204F464600C4
S1130C224F4E20464F5257415244002575252520E8
S1130C3225730052554E20464F5257415244004F9D
S1130C424E204241434B574152440052554E20429A
S1130C5241434B5741524400000000000000005F32
S1130C6200000007000700147F147F14242A7F2A3F
S1130C72122313086462364955225000050300000A
S1130C82001C2241000041221C0014083E081408E2
S1130C92083E0808005030000008080808080060F0
S1130CA260000020100804023E5149453E00427F84
S1130CB2400042615149462141454B311814127F8B
S1130CC21027454545393C4A494930017109050314
S1130CD23649494936064949291E0036360000007C
S1130CE2563600000814224100141414141400414E
S1130CF22214080201510906324979413E7E11113A
S1130D02117E7F494949363E414141227F41412278
S1130D121C7F494949417F090909013E4149497AF0
S1130D227F0808087F00417F41002040413F017F46
S1130D32081422417F404040407F020C027F7F041E
S1130D4208107F3E4141413E7F090909063E415157
S1130D52215E7F09192946464949493101017F012A
S1130D62013F4040403F1F2040201F3F4038403F4A
S1130D726314081463070870080761514945430066
S9030000FC
