:020000020000FC
:0200000029C213
:1000E400000000000000000000000000000000000C
:1000F400000008950000000000000000000000005F
:100104000000000000000000000000008A9580301C
:1001140089F70895282F8AEFEDDF8AEFEBDF8AEF66
:10012400E9DF8AEFE7DF2A952030A9F70895182F31
:100134008AEFF0DF8AEFEEDF8AEFECDF8AEFEADFA7
:100144001A951030A9F70895000000000000005F20
:1001540000000007000700147F147F14242A7F2A5C
:100164001223130864623649552250000503000027
:10017400001C2241000041221C0014083E081408FF
:10018400083E08080050300000080808080800600D
:1001940060000020100804023E5149453E00427FA1
:1001A400400042615149462141454B311814127FA8
:1001B4001027454545393C4A494930017109050331
:1001C4003649494936064949291E00363600000099
:1001D400563600000814224100141414141400416B
:1001E4002214080201510906324979413E7E111157
:1001F400117E7F494949363E414141227F41412296
:100204001C7F494949417F090909013E4149497A0D
:100214007F0808087F00417F41002040413F017F63
:10022400081422417F404040407F020C027F7F043B
:1002340008107F3E4141413E7F090909063E415174
:10024400215E7F09192946464949493101017F0147
:10025400013F4040403F1F2040201F3F4038403F67
:100264006314081463070870080761514945430083
:1002740084E150DF2D9A8AE04DDF2E9A2C9881E29A
:1002840033D02C9883E130D02C9880EC2DD02C984E
:1002940084E02AD02C9880E227D02C988CE024D0BB
:1002A40008951F018491803029F02C9A04D0F10123
:1002B4003196F7CF0895082F005215E0019FF1E021
:1002C400ECE4E00DF11D84910FD0319684910CD0B3
:1002D4003196849109D03196849106D031968491D7
:1002E40003D080E001D008952E98082F20E010E874
:1002F4001023103031F4809102018F7B809302012E
:1003040005C0809102018064809302018091020102
:10031400806280930201E4DE809102018F7D8093EC
:100324000201000F2395283011F72E9A089534E521
:1003340080E22C9AC0DF3A953030D1F72C9880E8CF
:10034400D3DF2C9880E4D0DF08953134372A323556
:1003540038303336392341424344100030E0A59A03
:10036400739880910201877F80930201809102013A
:100374008F7E8093020181E0CDDE7D9958C0339554
:100384007C9955C03395649952C0339565994FC093
:100394003395A598739A80910201877F8093020117
:1003A400809102018F7E8093020181E0B3DE7D990A
:1003B4003EC033957C993BC03395649938C03395DE
:1003C400659935C03395A59873988091020188602A
:1003D40080930201809102018F7E8093020181E06B
:1003E40099DE7D9924C033957C9921C03395649915
:1003F4001EC0339565991BC03395A5987398809159
:100404000201877F809302018091020180618093C1
:10041400020181E07FDE7D990AC033957C9907C093
:100424003395649904C03395659901C03395832F3E
:100434000895F3E0EEE4E80F80E0F81F82E36ADE5B
:10044400849108955052455353204B45593A000026
:100454000FEF0DBF01E20EBF03D00ED009DF0EC0B7
:1004640000E704B908E70093010108E00DB900E0D2
:1004740000BB00E203BB0895279A089558DFF4E017
:10048400E8E40FDF2C9880E82FDF2C9881E42CDF40
:1004940080E190E163DF9817E9F3982FCADF803198
:0804A400C9F32C9A08DFF6CF22
:00000001FF
