:020000020000FC
:020000002BC310
:1000E40057454C434F4D45210000524F4C4C494E0F
:1000F400472E2E2E000056414C55453A00005052D2
:10010400455353203220544F20524F4C4C21000071
:1001140000000000000000000000000000000000DB
:10012400000008950000000000000000000000002E
:100134000000000000000000000000008A958030EC
:1001440089F70895282F8AEFEDDF8AEFEBDF8AEF36
:10015400E9DF8AEFE7DF2A952030A9F70895182F01
:100164008AEFF0DF8AEFEEDF8AEFECDF8AEFEADF77
:100174001A951030A9F7089581E0F1DF0895000081
:1001840000000000005F00000007000700147F1457
:100194007F14242A7F2A12231308646236495522C5
:1001A400500005030000001C2241000041221C00F5
:1001B40014083E081408083E0808005030000008DF
:1001C40008080808006060000020100804023E517E
:1001D40049453E00427F4000426151494621414524
:1001E4004B311814127F1027454545393C4A49497B
:1001F4003001710905033649494936064949291E22
:10020400003636000000563600000814224100145F
:10021400141414140041221408020151090632492D
:1002240079413E7E1111117E7F494949363E414153
:1002340041227F4141221C7F494949417F090909E3
:10024400013E4149497A7F0808087F00417F410007
:100254002040413F017F081422417F404040407FBD
:10026400020C027F7F0408107F3E4141413E7F091A
:100274000909063E4151215E7F091929464649492B
:10028400493101017F01013F4040403F1F20402090
:100294001F3F4038403F6314081463070870080781
:1002A40061514945430084E14DDF2D9A8AE04ADFDC
:1002B4002E9A2C9881E233D02C9883E130D02C985C
:1002C40080EC2DD02C9884E02AD02C9880E227D082
:1002D4002C988CE024D008951F018491803029F05B
:1002E4002C9A04D0F1013196F7CF0895082F0052CB
:1002F40015E0019FF1E0E2E8E00DF11D84910FD0DB
:10030400319684910CD03196849109D031968491A0
:1003140006D03196849103D080E001D008952E98C0
:10032400082F20E010E81023103031F480910201EE
:100334008F7B8093020105C08091020180648093C9
:10034400020180910201806280930201E1DE8091CA
:1003540002018F7D80930201000F2395283011F74D
:100364002E9A089534E580E22C9AC0DF3A95303015
:10037400D1F72C9880E8D3DF2C9880E4D0DF08955F
:100384003134372A32353830333639234142434405
:10039400100030E0A59A739880910201877F8093C2
:1003A4000201809102018F7E8093020181E0CADE06
:1003B4007D9958C033957C9955C03395649952C042
:1003C400339565994FC03395A598739A809102012E
:1003D400877F80930201809102018F7E80930201C6
:1003E40081E0B0DE7D993EC033957C993BC0339566
:1003F400649938C03395659935C03395A598739839
:1004040080910201886080930201809102018F7EB5
:100414008093020181E096DE7D9924C033957C9916
:1004240021C0339564991EC0339565991BC03395DB
:10043400A598739880910201877F8093020180912F
:10044400020180618093020181E07CDE7D990AC013
:1004540033957C9907C03395649904C033956599A5
:1004640001C03395832F0895F3E0E4E8E80F80E0BA
:10047400F81F82E367DE8491089596E0000000008F
:1004840088DF843009F008959A95B9F3F7CF434C87
:10049400454152494E472E2E2E005448524F575331
:1004A4003A004E4252204F46203127533A004E42E2
:1004B40052204F46203227533A004E4252204F4694
:1004C400203327533A004E4252204F4620342753BC
:1004D4003A004E4252204F46203527533A004E42AE
:1004E40052204F46203627533A00A4D00895303185
:1004F4003233343536373839414243444546F4E0E3
:10050400E2EF582E82958F70E80F6624F61D8491D1
:100514002C9AECDE852D8F70F4E0E2EFE80F662470
:10052400F61D84912C9AE2DE08951CDFF4E0EEE9D6
:10053400D3DE80E07AD0E3DF1FDE14DFF4E0E6EA06
:10054400CBDE81E072D0DBDF17DE0CDFF4E0E2EB20
:10055400C3DE82E06AD0D3DF0FDE04DFF4E0EEEB2B
:10056400BBDE83E062D0CBDF07DEFCDEF4E0EAEC46
:10057400B3DE84E05AD0C3DFFFDDF4DEF4E0E6ED61
:10058400ABDE85E052D0BBDFF7DDECDEF4E0E2EE7B
:10059400A3DE86E04AD0B3DFEFDDE4DE0895E2DED9
:1005A400F4E0E2E999DE46D008954D4F4E49544FA8
:1005B40052000895EEDE833049F08B3039F08031FB
:1005C40011F4382EF7CF8315A9F3382E08958EE34E
:1005D4002C9A8CDE8B2F93DF8A2F91DF8AE32C9A5F
:1005E40085DE0895BFDEF5E0EEEA76DEC5DDB0E037
:1005F400A0E0B8DEECDF8D9182DFDCDF833051F0E8
:100604008B3029F031DF8053B82FAA27F2CF88EC42
:1006140099DDEFCF0895F2E0E0E090819395908327
:10062400E80F9081939590830895F2E0E0E0E80F5D
:100634008081089590E0909300029093010290933A
:100644000202909303029093040290930502909304
:10065400060208950FEF0DBF01E20EBF05D010D0C2
:1006640022DEA7DF42DF0EC000E704B908E70093EB
:10067400010108E00DB900E000BB00E203BB0895EE
:10068400279A08956FDEF0E0E4EE26DED3DF82E001
:1006940066DD68DEF1E0E2E01FDE2BC07ADE843046
:1006A40039F08630B1F08830D1F08A30A9F021C019
:1006B40059DEF0E0EEEE10DEE0DE54DEF0E0EAEFCC
:1006C4000BDE892F805D2C9A11DE892FA4DF0AD0DE
:1006D40010C065DF07D00DC085DF04D00AC025DF58
:1006E40001D007C081E03BDD3DDEF1E0E2E0F4DD76
:0606F4000895D4CFFECFF3
:00000001FF
